{
  "_format": "hh-sol-artifact-1",
  "contractName": "TalentProfile",
  "sourceName": "contracts/TalentProfile.sol",
  "abi": [
    {
      "anonymous": false,
      "inputs": [
        {
          "indexed": true,
          "internalType": "address",
          "name": "user",
          "type": "address"
        },
        {
          "indexed": false,
          "internalType": "string",
          "name": "name",
          "type": "string"
        },
        {
          "indexed": false,
          "internalType": "string",
          "name": "email",
          "type": "string"
        },
        {
          "indexed": false,
          "internalType": "string",
          "name": "telegram",
          "type": "string"
        },
        {
          "indexed": false,
          "internalType": "string",
          "name": "bio",
          "type": "string"
        },
        {
          "indexed": false,
          "internalType": "string",
          "name": "resumeHash",
          "type": "string"
        },
        {
          "indexed": false,
          "internalType": "string[]",
          "name": "skills",
          "type": "string[]"
        },
        {
          "indexed": false,
          "internalType": "uint256",
          "name": "timestamp",
          "type": "uint256"
        }
      ],
      "name": "ProfileCreated",
      "type": "event"
    },
    {
      "anonymous": false,
      "inputs": [
        {
          "indexed": true,
          "internalType": "address",
          "name": "user",
          "type": "address"
        },
        {
          "indexed": false,
          "internalType": "string",
          "name": "name",
          "type": "string"
        },
        {
          "indexed": false,
          "internalType": "string",
          "name": "email",
          "type": "string"
        },
        {
          "indexed": false,
          "internalType": "string",
          "name": "telegram",
          "type": "string"
        },
        {
          "indexed": false,
          "internalType": "string",
          "name": "bio",
          "type": "string"
        },
        {
          "indexed": false,
          "internalType": "string",
          "name": "resumeHash",
          "type": "string"
        },
        {
          "indexed": false,
          "internalType": "string[]",
          "name": "skills",
          "type": "string[]"
        },
        {
          "indexed": false,
          "internalType": "uint256",
          "name": "timestamp",
          "type": "uint256"
        }
      ],
      "name": "ProfileUpdated",
      "type": "event"
    },
    {
      "inputs": [
        {
          "internalType": "string",
          "name": "_name",
          "type": "string"
        },
        {
          "internalType": "string",
          "name": "_email",
          "type": "string"
        },
        {
          "internalType": "string",
          "name": "_telegram",
          "type": "string"
        },
        {
          "internalType": "string",
          "name": "_bio",
          "type": "string"
        },
        {
          "internalType": "string",
          "name": "_resumeHash",
          "type": "string"
        },
        {
          "internalType": "string[]",
          "name": "_skills",
          "type": "string[]"
        }
      ],
      "name": "createProfile",
      "outputs": [],
      "stateMutability": "nonpayable",
      "type": "function"
    },
    {
      "inputs": [
        {
          "internalType": "address",
          "name": "_user",
          "type": "address"
        }
      ],
      "name": "getProfile",
      "outputs": [
        {
          "components": [
            {
              "internalType": "string",
              "name": "name",
              "type": "string"
            },
            {
              "internalType": "string",
              "name": "email",
              "type": "string"
            },
            {
              "internalType": "string",
              "name": "telegram",
              "type": "string"
            },
            {
              "internalType": "string",
              "name": "bio",
              "type": "string"
            },
            {
              "internalType": "string",
              "name": "resumeHash",
              "type": "string"
            },
            {
              "internalType": "string[]",
              "name": "skills",
              "type": "string[]"
            },
            {
              "internalType": "uint256",
              "name": "createdAt",
              "type": "uint256"
            },
            {
              "internalType": "uint256",
              "name": "updatedAt",
              "type": "uint256"
            }
          ],
          "internalType": "struct TalentProfile.Profile",
          "name": "",
          "type": "tuple"
        }
      ],
      "stateMutability": "view",
      "type": "function"
    },
    {
      "inputs": [
        {
          "internalType": "address",
          "name": "",
          "type": "address"
        }
      ],
      "name": "hasProfile",
      "outputs": [
        {
          "internalType": "bool",
          "name": "",
          "type": "bool"
        }
      ],
      "stateMutability": "view",
      "type": "function"
    },
    {
      "inputs": [
        {
          "internalType": "address",
          "name": "_user",
          "type": "address"
        }
      ],
      "name": "profileExists",
      "outputs": [
        {
          "internalType": "bool",
          "name": "",
          "type": "bool"
        }
      ],
      "stateMutability": "view",
      "type": "function"
    },
    {
      "inputs": [
        {
          "internalType": "address",
          "name": "",
          "type": "address"
        }
      ],
      "name": "profiles",
      "outputs": [
        {
          "internalType": "string",
          "name": "name",
          "type": "string"
        },
        {
          "internalType": "string",
          "name": "email",
          "type": "string"
        },
        {
          "internalType": "string",
          "name": "telegram",
          "type": "string"
        },
        {
          "internalType": "string",
          "name": "bio",
          "type": "string"
        },
        {
          "internalType": "string",
          "name": "resumeHash",
          "type": "string"
        },
        {
          "internalType": "uint256",
          "name": "createdAt",
          "type": "uint256"
        },
        {
          "internalType": "uint256",
          "name": "updatedAt",
          "type": "uint256"
        }
      ],
      "stateMutability": "view",
      "type": "function"
    },
    {
      "inputs": [
        {
          "internalType": "string",
          "name": "_name",
          "type": "string"
        },
        {
          "internalType": "string",
          "name": "_email",
          "type": "string"
        },
        {
          "internalType": "string",
          "name": "_telegram",
          "type": "string"
        },
        {
          "internalType": "string",
          "name": "_bio",
          "type": "string"
        },
        {
          "internalType": "string",
          "name": "_resumeHash",
          "type": "string"
        },
        {
          "internalType": "string[]",
          "name": "_skills",
          "type": "string[]"
        }
      ],
      "name": "updateProfile",
      "outputs": [],
      "stateMutability": "nonpayable",
      "type": "function"
    }
  ],
  "bytecode": "0x608060405234801561001057600080fd5b50611c0c806100206000396000f3fe608060405234801561001057600080fd5b50600436106100625760003560e01c806305cfa06f146100675780630f53a470146100975780633180b0dd146100c7578063a787c80b146100e3578063bbe1562714610113578063e935075314610149575b600080fd5b610081600480360381019061007c9190610f97565b610165565b60405161008e9190610fdf565b60405180910390f35b6100b160048036038101906100ac9190610f97565b6101bb565b6040516100be9190611238565b60405180910390f35b6100e160048036038101906100dc9190611475565b610667565b005b6100fd60048036038101906100f89190610f97565b610858565b60405161010a9190610fdf565b60405180910390f35b61012d60048036038101906101289190610f97565b610878565b6040516101409796959493929190611603565b60405180910390f35b610163600480360381019061015e9190611475565b610b62565b005b6000600160008373ffffffffffffffffffffffffffffffffffffffff1673ffffffffffffffffffffffffffffffffffffffff16815260200190815260200160002060009054906101000a900460ff169050919050565b6101c3610e06565b600160008373ffffffffffffffffffffffffffffffffffffffff1673ffffffffffffffffffffffffffffffffffffffff16815260200190815260200160002060009054906101000a900460ff1661024f576040517f08c379a0000000000000000000000000000000000000000000000000000000008152600401610246906116e1565b60405180910390fd5b6000808373ffffffffffffffffffffffffffffffffffffffff1673ffffffffffffffffffffffffffffffffffffffff168152602001908152602001600020604051806101000160405290816000820180546102a990611730565b80601f01602080910402602001604051908101604052809291908181526020018280546102d590611730565b80156103225780601f106102f757610100808354040283529160200191610322565b820191906000526020600020905b81548152906001019060200180831161030557829003601f168201915b5050505050815260200160018201805461033b90611730565b80601f016020809104026020016040519081016040528092919081815260200182805461036790611730565b80156103b45780601f10610389576101008083540402835291602001916103b4565b820191906000526020600020905b81548152906001019060200180831161039757829003601f168201915b505050505081526020016002820180546103cd90611730565b80601f01602080910402602001604051908101604052809291908181526020018280546103f990611730565b80156104465780601f1061041b57610100808354040283529160200191610446565b820191906000526020600020905b81548152906001019060200180831161042957829003601f168201915b5050505050815260200160038201805461045f90611730565b80601f016020809104026020016040519081016040528092919081815260200182805461048b90611730565b80156104d85780601f106104ad576101008083540402835291602001916104d8565b820191906000526020600020905b8154815290600101906020018083116104bb57829003601f168201915b505050505081526020016004820180546104f190611730565b80601f016020809104026020016040519081016040528092919081815260200182805461051d90611730565b801561056a5780601f1061053f5761010080835404028352916020019161056a565b820191906000526020600020905b81548152906001019060200180831161054d57829003601f168201915b5050505050815260200160058201805480602002602001604051908101604052809291908181526020016000905b828210156106445783829060005260206000200180546105b790611730565b80601f01602080910402602001604051908101604052809291908181526020018280546105e390611730565b80156106305780601f1061060557610100808354040283529160200191610630565b820191906000526020600020905b81548152906001019060200180831161061357829003601f168201915b505050505081526020019060010190610598565b505050508152602001600682015481526020016007820154815250509050919050565b600160003373ffffffffffffffffffffffffffffffffffffffff1673ffffffffffffffffffffffffffffffffffffffff16815260200190815260200160002060009054906101000a900460ff166106f3576040517f08c379a00000000000000000000000000000000000000000000000000000000081526004016106ea906116e1565b60405180910390fd5b6000865111610737576040517f08c379a000000000000000000000000000000000000000000000000000000000815260040161072e906117ad565b60405180910390fd5b60008060003373ffffffffffffffffffffffffffffffffffffffff1673ffffffffffffffffffffffffffffffffffffffff16815260200190815260200160002090508681600001908161078a9190611979565b508581600101908161079c9190611979565b50848160020190816107ae9190611979565b50838160030190816107c09190611979565b50828160040190816107d29190611979565b50818160050190805190602001906107eb929190610e4b565b504281600701819055503373ffffffffffffffffffffffffffffffffffffffff167fe3501855a7183ac70f8c8d60c588c49a53b2ab4c5f146b9089060ff2dc104c33888888888888426040516108479796959493929190611ad1565b60405180910390a250505050505050565b60016020528060005260406000206000915054906101000a900460ff1681565b600060205280600052604060002060009150905080600001805461089b90611730565b80601f01602080910402602001604051908101604052809291908181526020018280546108c790611730565b80156109145780601f106108e957610100808354040283529160200191610914565b820191906000526020600020905b8154815290600101906020018083116108f757829003601f168201915b50505050509080600101805461092990611730565b80601f016020809104026020016040519081016040528092919081815260200182805461095590611730565b80156109a25780601f10610977576101008083540402835291602001916109a2565b820191906000526020600020905b81548152906001019060200180831161098557829003601f168201915b5050505050908060020180546109b790611730565b80601f01602080910402602001604051908101604052809291908181526020018280546109e390611730565b8015610a305780601f10610a0557610100808354040283529160200191610a30565b820191906000526020600020905b815481529060010190602001808311610a1357829003601f168201915b505050505090806003018054610a4590611730565b80601f0160208091040260200160405190810160405280929190818152602001828054610a7190611730565b8015610abe5780601f10610a9357610100808354040283529160200191610abe565b820191906000526020600020905b815481529060010190602001808311610aa157829003601f168201915b505050505090806004018054610ad390611730565b80601f0160208091040260200160405190810160405280929190818152602001828054610aff90611730565b8015610b4c5780601f10610b2157610100808354040283529160200191610b4c565b820191906000526020600020905b815481529060010190602001808311610b2f57829003601f168201915b5050505050908060060154908060070154905087565b600160003373ffffffffffffffffffffffffffffffffffffffff1673ffffffffffffffffffffffffffffffffffffffff16815260200190815260200160002060009054906101000a900460ff1615610bef576040517f08c379a0000000000000000000000000000000000000000000000000000000008152600401610be690611bb6565b60405180910390fd5b6000865111610c33576040517f08c379a0000000000000000000000000000000000000000000000000000000008152600401610c2a906117ad565b60405180910390fd5b604051806101000160405280878152602001868152602001858152602001848152602001838152602001828152602001428152602001428152506000803373ffffffffffffffffffffffffffffffffffffffff1673ffffffffffffffffffffffffffffffffffffffff1681526020019081526020016000206000820151816000019081610cc09190611979565b506020820151816001019081610cd69190611979565b506040820151816002019081610cec9190611979565b506060820151816003019081610d029190611979565b506080820151816004019081610d189190611979565b5060a0820151816005019080519060200190610d35929190610e4b565b5060c0820151816006015560e0820151816007015590505060018060003373ffffffffffffffffffffffffffffffffffffffff1673ffffffffffffffffffffffffffffffffffffffff16815260200190815260200160002060006101000a81548160ff0219169083151502179055503373ffffffffffffffffffffffffffffffffffffffff167fb9e858df823e848c6478b2a38e429fd552d66a6f37ceccd8e72bb22a1f52aa1687878787878742604051610df69796959493929190611ad1565b60405180910390a2505050505050565b60405180610100016040528060608152602001606081526020016060815260200160608152602001606081526020016060815260200160008152602001600081525090565b828054828255906000526020600020908101928215610e93579160200282015b82811115610e92578251829081610e829190611979565b5091602001919060010190610e6b565b5b509050610ea09190610ea4565b5090565b5b80821115610ec45760008181610ebb9190610ec8565b50600101610ea5565b5090565b508054610ed490611730565b6000825580601f10610ee65750610f05565b601f016020900490600052602060002090810190610f049190610f08565b5b50565b5b80821115610f21576000816000905550600101610f09565b5090565b6000604051905090565b600080fd5b600080fd5b600073ffffffffffffffffffffffffffffffffffffffff82169050919050565b6000610f6482610f39565b9050919050565b610f7481610f59565b8114610f7f57600080fd5b50565b600081359050610f9181610f6b565b92915050565b600060208284031215610fad57610fac610f2f565b5b6000610fbb84828501610f82565b91505092915050565b60008115159050919050565b610fd981610fc4565b82525050565b6000602082019050610ff46000830184610fd0565b92915050565b600081519050919050565b600082825260208201905092915050565b60005b83811015611034578082015181840152602081019050611019565b60008484015250505050565b6000601f19601f8301169050919050565b600061105c82610ffa565b6110668185611005565b9350611076818560208601611016565b61107f81611040565b840191505092915050565b600081519050919050565b600082825260208201905092915050565b6000819050602082019050919050565b60006110c28383611051565b905092915050565b6000602082019050919050565b60006110e28261108a565b6110ec8185611095565b9350836020820285016110fe856110a6565b8060005b8581101561113a578484038952815161111b85826110b6565b9450611126836110ca565b925060208a01995050600181019050611102565b50829750879550505050505092915050565b6000819050919050565b61115f8161114c565b82525050565b60006101008301600083015184820360008601526111838282611051565b9150506020830151848203602086015261119d8282611051565b915050604083015184820360408601526111b78282611051565b915050606083015184820360608601526111d18282611051565b915050608083015184820360808601526111eb8282611051565b91505060a083015184820360a086015261120582826110d7565b91505060c083015161121a60c0860182611156565b5060e083015161122d60e0860182611156565b508091505092915050565b600060208201905081810360008301526112528184611165565b905092915050565b600080fd5b600080fd5b7f4e487b7100000000000000000000000000000000000000000000000000000000600052604160045260246000fd5b61129c82611040565b810181811067ffffffffffffffff821117156112bb576112ba611264565b5b80604052505050565b60006112ce610f25565b90506112da8282611293565b919050565b600067ffffffffffffffff8211156112fa576112f9611264565b5b61130382611040565b9050602081019050919050565b82818337600083830152505050565b600061133261132d846112df565b6112c4565b90508281526020810184848401111561134e5761134d61125f565b5b611359848285611310565b509392505050565b600082601f8301126113765761137561125a565b5b813561138684826020860161131f565b91505092915050565b600067ffffffffffffffff8211156113aa576113a9611264565b5b602082029050602081019050919050565b600080fd5b60006113d36113ce8461138f565b6112c4565b905080838252602082019050602084028301858111156113f6576113f56113bb565b5b835b8181101561143d57803567ffffffffffffffff81111561141b5761141a61125a565b5b8086016114288982611361565b855260208501945050506020810190506113f8565b5050509392505050565b600082601f83011261145c5761145b61125a565b5b813561146c8482602086016113c0565b91505092915050565b60008060008060008060c0878903121561149257611491610f2f565b5b600087013567ffffffffffffffff8111156114b0576114af610f34565b5b6114bc89828a01611361565b965050602087013567ffffffffffffffff8111156114dd576114dc610f34565b5b6114e989828a01611361565b955050604087013567ffffffffffffffff81111561150a57611509610f34565b5b61151689828a01611361565b945050606087013567ffffffffffffffff81111561153757611536610f34565b5b61154389828a01611361565b935050608087013567ffffffffffffffff81111561156457611563610f34565b5b61157089828a01611361565b92505060a087013567ffffffffffffffff81111561159157611590610f34565b5b61159d89828a01611447565b9150509295509295509295565b600082825260208201905092915050565b60006115c682610ffa565b6115d081856115aa565b93506115e0818560208601611016565b6115e981611040565b840191505092915050565b6115fd8161114c565b82525050565b600060e082019050818103600083015261161d818a6115bb565b9050818103602083015261163181896115bb565b9050818103604083015261164581886115bb565b9050818103606083015261165981876115bb565b9050818103608083015261166d81866115bb565b905061167c60a08301856115f4565b61168960c08301846115f4565b98975050505050505050565b7f50726f66696c6520646f6573206e6f7420657869737400000000000000000000600082015250565b60006116cb6016836115aa565b91506116d682611695565b602082019050919050565b600060208201905081810360008301526116fa816116be565b9050919050565b7f4e487b7100000000000000000000000000000000000000000000000000000000600052602260045260246000fd5b6000600282049050600182168061174857607f821691505b60208210810361175b5761175a611701565b5b50919050565b7f4e616d652063616e6e6f7420626520656d707479000000000000000000000000600082015250565b60006117976014836115aa565b91506117a282611761565b602082019050919050565b600060208201905081810360008301526117c68161178a565b9050919050565b60008190508160005260206000209050919050565b60006020601f8301049050919050565b600082821b905092915050565b60006008830261182f7fffffffffffffffffffffffffffffffffffffffffffffffffffffffffffffffff826117f2565b61183986836117f2565b95508019841693508086168417925050509392505050565b6000819050919050565b600061187661187161186c8461114c565b611851565b61114c565b9050919050565b6000819050919050565b6118908361185b565b6118a461189c8261187d565b8484546117ff565b825550505050565b600090565b6118b96118ac565b6118c4818484611887565b505050565b5b818110156118e8576118dd6000826118b1565b6001810190506118ca565b5050565b601f82111561192d576118fe816117cd565b611907846117e2565b81016020851015611916578190505b61192a611922856117e2565b8301826118c9565b50505b505050565b600082821c905092915050565b600061195060001984600802611932565b1980831691505092915050565b6000611969838361193f565b9150826002028217905092915050565b61198282610ffa565b67ffffffffffffffff81111561199b5761199a611264565b5b6119a58254611730565b6119b08282856118ec565b600060209050601f8311600181146119e357600084156119d1578287015190505b6119db858261195d565b865550611a43565b601f1984166119f1866117cd565b60005b82811015611a19578489015182556001820191506020850194506020810190506119f4565b86831015611a365784890151611a32601f89168261193f565b8355505b6001600288020188555050505b505050505050565b600082825260208201905092915050565b6000611a678261108a565b611a718185611a4b565b935083602082028501611a83856110a6565b8060005b85811015611abf5784840389528151611aa085826110b6565b9450611aab836110ca565b925060208a01995050600181019050611a87565b50829750879550505050505092915050565b600060e0820190508181036000830152611aeb818a6115bb565b90508181036020830152611aff81896115bb565b90508181036040830152611b1381886115bb565b90508181036060830152611b2781876115bb565b90508181036080830152611b3b81866115bb565b905081810360a0830152611b4f8185611a5c565b9050611b5e60c08301846115f4565b98975050505050505050565b7f50726f66696c6520616c72656164792065786973747300000000000000000000600082015250565b6000611ba06016836115aa565b9150611bab82611b6a565b602082019050919050565b60006020820190508181036000830152611bcf81611b93565b905091905056fea26469706673582212202ce190e2d542f45a24f44abe70ef2d38268a83e77e86ab76352b9a82323c068464736f6c63430008160033",
  "linkReferences": {},
  "deployedLinkReferences": {}
}