{
  "_format": "hh-sol-artifact-1",
  "contractName": "BountyBoard",
  "sourceName": "contracts/BountyBoard.sol",
  "abi": [
    {
      "anonymous": false,
      "inputs": [
        {
          "indexed": true,
          "internalType": "uint256",
          "name": "bountyId",
          "type": "uint256"
        },
        {
          "indexed": true,
          "internalType": "address",
          "name": "applicant",
          "type": "address"
        },
        {
          "indexed": false,
          "internalType": "uint256",
          "name": "acceptedAt",
          "type": "uint256"
        }
      ],
      "name": "ApplicationAccepted",
      "type": "event"
    },
    {
      "anonymous": false,
      "inputs": [
        {
          "indexed": true,
          "internalType": "uint256",
          "name": "bountyId",
          "type": "uint256"
        },
        {
          "indexed": true,
          "internalType": "address",
          "name": "applicant",
          "type": "address"
        },
        {
          "indexed": false,
          "internalType": "string",
          "name": "coverLetter",
          "type": "string"
        },
        {
          "indexed": false,
          "internalType": "uint256",
          "name": "appliedAt",
          "type": "uint256"
        }
      ],
      "name": "ApplicationSubmitted",
      "type": "event"
    },
    {
      "anonymous": false,
      "inputs": [
        {
          "indexed": true,
          "internalType": "uint256",
          "name": "bountyId",
          "type": "uint256"
        },
        {
          "indexed": true,
          "internalType": "address",
          "name": "applicant",
          "type": "address"
        },
        {
          "indexed": false,
          "internalType": "uint256",
          "name": "completedAt",
          "type": "uint256"
        }
      ],
      "name": "BountyCompleted",
      "type": "event"
    },
    {
      "anonymous": false,
      "inputs": [
        {
          "indexed": true,
          "internalType": "uint256",
          "name": "bountyId",
          "type": "uint256"
        },
        {
          "indexed": true,
          "internalType": "address",
          "name": "company",
          "type": "address"
        },
        {
          "indexed": false,
          "internalType": "string",
          "name": "title",
          "type": "string"
        },
        {
          "indexed": false,
          "internalType": "string",
          "name": "description",
          "type": "string"
        },
        {
          "indexed": false,
          "internalType": "string[]",
          "name": "requiredSkills",
          "type": "string[]"
        },
        {
          "indexed": false,
          "internalType": "uint256",
          "name": "payment",
          "type": "uint256"
        },
        {
          "indexed": false,
          "internalType": "uint256",
          "name": "deadline",
          "type": "uint256"
        },
        {
          "indexed": false,
          "internalType": "uint256",
          "name": "createdAt",
          "type": "uint256"
        }
      ],
      "name": "BountyPosted",
      "type": "event"
    },
    {
      "inputs": [
        {
          "internalType": "uint256",
          "name": "_bountyId",
          "type": "uint256"
        },
        {
          "internalType": "uint256",
          "name": "_applicationIndex",
          "type": "uint256"
        }
      ],
      "name": "acceptApplication",
      "outputs": [],
      "stateMutability": "nonpayable",
      "type": "function"
    },
    {
      "inputs": [
        {
          "internalType": "uint256",
          "name": "",
          "type": "uint256"
        },
        {
          "internalType": "uint256",
          "name": "",
          "type": "uint256"
        }
      ],
      "name": "applications",
      "outputs": [
        {
          "internalType": "address",
          "name": "applicant",
          "type": "address"
        },
        {
          "internalType": "string",
          "name": "coverLetter",
          "type": "string"
        },
        {
          "internalType": "uint256",
          "name": "appliedAt",
          "type": "uint256"
        },
        {
          "internalType": "bool",
          "name": "isAccepted",
          "type": "bool"
        },
        {
          "internalType": "bool",
          "name": "isCompleted",
          "type": "bool"
        }
      ],
      "stateMutability": "view",
      "type": "function"
    },
    {
      "inputs": [
        {
          "internalType": "uint256",
          "name": "_bountyId",
          "type": "uint256"
        },
        {
          "internalType": "string",
          "name": "_coverLetter",
          "type": "string"
        }
      ],
      "name": "applyForBounty",
      "outputs": [],
      "stateMutability": "nonpayable",
      "type": "function"
    },
    {
      "inputs": [
        {
          "internalType": "uint256",
          "name": "",
          "type": "uint256"
        }
      ],
      "name": "bounties",
      "outputs": [
        {
          "internalType": "uint256",
          "name": "id",
          "type": "uint256"
        },
        {
          "internalType": "address",
          "name": "company",
          "type": "address"
        },
        {
          "internalType": "string",
          "name": "title",
          "type": "string"
        },
        {
          "internalType": "string",
          "name": "description",
          "type": "string"
        },
        {
          "internalType": "uint256",
          "name": "payment",
          "type": "uint256"
        },
        {
          "internalType": "bool",
          "name": "isActive",
          "type": "bool"
        },
        {
          "internalType": "uint256",
          "name": "createdAt",
          "type": "uint256"
        },
        {
          "internalType": "uint256",
          "name": "deadline",
          "type": "uint256"
        }
      ],
      "stateMutability": "view",
      "type": "function"
    },
    {
      "inputs": [
        {
          "internalType": "uint256",
          "name": "",
          "type": "uint256"
        }
      ],
      "name": "bountyCount",
      "outputs": [
        {
          "internalType": "uint256",
          "name": "",
          "type": "uint256"
        }
      ],
      "stateMutability": "view",
      "type": "function"
    },
    {
      "inputs": [
        {
          "internalType": "uint256",
          "name": "_bountyId",
          "type": "uint256"
        },
        {
          "internalType": "uint256",
          "name": "_applicationIndex",
          "type": "uint256"
        }
      ],
      "name": "completeBounty",
      "outputs": [],
      "stateMutability": "nonpayable",
      "type": "function"
    },
    {
      "inputs": [
        {
          "internalType": "uint256",
          "name": "_bountyId",
          "type": "uint256"
        }
      ],
      "name": "getApplications",
      "outputs": [
        {
          "components": [
            {
              "internalType": "address",
              "name": "applicant",
              "type": "address"
            },
            {
              "internalType": "string",
              "name": "coverLetter",
              "type": "string"
            },
            {
              "internalType": "uint256",
              "name": "appliedAt",
              "type": "uint256"
            },
            {
              "internalType": "bool",
              "name": "isAccepted",
              "type": "bool"
            },
            {
              "internalType": "bool",
              "name": "isCompleted",
              "type": "bool"
            }
          ],
          "internalType": "struct BountyBoard.Application[]",
          "name": "",
          "type": "tuple[]"
        }
      ],
      "stateMutability": "view",
      "type": "function"
    },
    {
      "inputs": [
        {
          "internalType": "uint256",
          "name": "_bountyId",
          "type": "uint256"
        }
      ],
      "name": "getBounty",
      "outputs": [
        {
          "components": [
            {
              "internalType": "uint256",
              "name": "id",
              "type": "uint256"
            },
            {
              "internalType": "address",
              "name": "company",
              "type": "address"
            },
            {
              "internalType": "string",
              "name": "title",
              "type": "string"
            },
            {
              "internalType": "string",
              "name": "description",
              "type": "string"
            },
            {
              "internalType": "string[]",
              "name": "requiredSkills",
              "type": "string[]"
            },
            {
              "internalType": "uint256",
              "name": "payment",
              "type": "uint256"
            },
            {
              "internalType": "bool",
              "name": "isActive",
              "type": "bool"
            },
            {
              "internalType": "uint256",
              "name": "createdAt",
              "type": "uint256"
            },
            {
              "internalType": "uint256",
              "name": "deadline",
              "type": "uint256"
            }
          ],
          "internalType": "struct BountyBoard.Bounty",
          "name": "",
          "type": "tuple"
        }
      ],
      "stateMutability": "view",
      "type": "function"
    },
    {
      "inputs": [],
      "name": "getBountyCount",
      "outputs": [
        {
          "internalType": "uint256",
          "name": "",
          "type": "uint256"
        }
      ],
      "stateMutability": "view",
      "type": "function"
    },
    {
      "inputs": [],
      "name": "nextBountyId",
      "outputs": [
        {
          "internalType": "uint256",
          "name": "",
          "type": "uint256"
        }
      ],
      "stateMutability": "view",
      "type": "function"
    },
    {
      "inputs": [
        {
          "internalType": "string",
          "name": "_title",
          "type": "string"
        },
        {
          "internalType": "string",
          "name": "_description",
          "type": "string"
        },
        {
          "internalType": "string[]",
          "name": "_requiredSkills",
          "type": "string[]"
        },
        {
          "internalType": "uint256",
          "name": "_payment",
          "type": "uint256"
        },
        {
          "internalType": "uint256",
          "name": "_deadline",
          "type": "uint256"
        }
      ],
      "name": "postBounty",
      "outputs": [],
      "stateMutability": "payable",
      "type": "function"
    }
  ],
  "bytecode": "0x608060405234801561001057600080fd5b50612a5c806100206000396000f3fe60806040526004361061009c5760003560e01c8063dc2f874411610064578063dc2f87441461018f578063e431a269146101d3578063ed961cf6146101fc578063ee8c4bbf14610225578063f28dd23b14610262578063fd14fad41461029f5761009c565b806301609b18146100a157806306641f7e146100bd5780637a870b63146100e857806383f67f6e14610129578063bc8c937d14610152575b600080fd5b6100bb60048036038101906100b691906118e9565b6102ca565b005b3480156100c957600080fd5b506100d2610555565b6040516100df91906119c7565b60405180910390f35b3480156100f457600080fd5b5061010f600480360381019061010a91906119e2565b61055f565b604051610120959493929190611afd565b60405180910390f35b34801561013557600080fd5b50610150600480360381019061014b91906119e2565b610674565b005b34801561015e57600080fd5b5061017960048036038101906101749190611b57565b6108ff565b6040516101869190611d33565b60405180910390f35b34801561019b57600080fd5b506101b660048036038101906101b19190611b57565b610add565b6040516101ca989796959493929190611d55565b60405180910390f35b3480156101df57600080fd5b506101fa60048036038101906101f59190611de1565b610c62565b005b34801561020857600080fd5b50610223600480360381019061021e91906119e2565b610ee2565b005b34801561023157600080fd5b5061024c60048036038101906102479190611b57565b611210565b6040516102599190611fd2565b60405180910390f35b34801561026e57600080fd5b5061028960048036038101906102849190611b57565b611517565b60405161029691906119c7565b60405180910390f35b3480156102ab57600080fd5b506102b461152f565b6040516102c191906119c7565b60405180910390f35b81341461030c576040517f08c379a000000000000000000000000000000000000000000000000000000000815260040161030390612066565b60405180910390fd5b6000855111610350576040517f08c379a0000000000000000000000000000000000000000000000000000000008152600401610347906120d2565b60405180910390fd5b428111610392576040517f08c379a00000000000000000000000000000000000000000000000000000000081526004016103899061213e565b60405180910390fd5b6000600360008154809291906103a79061218d565b9190505590506040518061012001604052808281526020013373ffffffffffffffffffffffffffffffffffffffff168152602001878152602001868152602001858152602001848152602001600115158152602001428152602001838152506000808381526020019081526020016000206000820151816000015560208201518160010160006101000a81548173ffffffffffffffffffffffffffffffffffffffff021916908373ffffffffffffffffffffffffffffffffffffffff160217905550604082015181600201908161047e91906123e1565b50606082015181600301908161049491906123e1565b5060808201518160040190805190602001906104b1929190611535565b5060a0820151816005015560c08201518160060160006101000a81548160ff02191690831515021790555060e0820151816007015561010082015181600801559050503373ffffffffffffffffffffffffffffffffffffffff16817fb0e18f6235123f15834f890d664dea4f731bda5476ec45919f059931a3690f4288888888884260405161054596959493929190612539565b60405180910390a3505050505050565b6000600354905090565b6001602052816000526040600020818154811061057b57600080fd5b9060005260206000209060040201600091509150508060000160009054906101000a900473ffffffffffffffffffffffffffffffffffffffff16908060010180546105c590612204565b80601f01602080910402602001604051908101604052809291908181526020018280546105f190612204565b801561063e5780601f106106135761010080835404028352916020019161063e565b820191906000526020600020905b81548152906001019060200180831161062157829003601f168201915b5050505050908060020154908060030160009054906101000a900460ff16908060030160019054906101000a900460ff16905085565b60035482106106b8576040517f08c379a00000000000000000000000000000000000000000000000000000000081526004016106af906125fb565b60405180910390fd5b60008083815260200190815260200160002060010160009054906101000a900473ffffffffffffffffffffffffffffffffffffffff1673ffffffffffffffffffffffffffffffffffffffff163373ffffffffffffffffffffffffffffffffffffffff161461075b576040517f08c379a00000000000000000000000000000000000000000000000000000000081526004016107529061268d565b60405180910390fd5b600160008381526020019081526020016000208054905081106107b3576040517f08c379a00000000000000000000000000000000000000000000000000000000081526004016107aa906126f9565b60405180910390fd5b60006001600084815260200190815260200160002082815481106107da576107d9612719565b5b906000526020600020906004020190508060030160009054906101000a900460ff161561083c576040517f08c379a000000000000000000000000000000000000000000000000000000000815260040161083390612794565b60405180910390fd5b60018160030160006101000a81548160ff021916908315150217905550600080600085815260200190815260200160002060060160006101000a81548160ff0219169083151502179055508060000160009054906101000a900473ffffffffffffffffffffffffffffffffffffffff1673ffffffffffffffffffffffffffffffffffffffff16837fe32571039ef324a825426dd5cdeae5b999f541d42d305cff5d7aec821280d82b426040516108f291906119c7565b60405180910390a3505050565b60606003548210610945576040517f08c379a000000000000000000000000000000000000000000000000000000000815260040161093c906125fb565b60405180910390fd5b60016000838152602001908152602001600020805480602002602001604051908101604052809291908181526020016000905b82821015610ad257838290600052602060002090600402016040518060a00160405290816000820160009054906101000a900473ffffffffffffffffffffffffffffffffffffffff1673ffffffffffffffffffffffffffffffffffffffff1673ffffffffffffffffffffffffffffffffffffffff168152602001600182018054610a0190612204565b80601f0160208091040260200160405190810160405280929190818152602001828054610a2d90612204565b8015610a7a5780601f10610a4f57610100808354040283529160200191610a7a565b820191906000526020600020905b815481529060010190602001808311610a5d57829003601f168201915b50505050508152602001600282015481526020016003820160009054906101000a900460ff161515151581526020016003820160019054906101000a900460ff16151515158152505081526020019060010190610978565b505050509050919050565b60006020528060005260406000206000915090508060000154908060010160009054906101000a900473ffffffffffffffffffffffffffffffffffffffff1690806002018054610b2c90612204565b80601f0160208091040260200160405190810160405280929190818152602001828054610b5890612204565b8015610ba55780601f10610b7a57610100808354040283529160200191610ba5565b820191906000526020600020905b815481529060010190602001808311610b8857829003601f168201915b505050505090806003018054610bba90612204565b80601f0160208091040260200160405190810160405280929190818152602001828054610be690612204565b8015610c335780601f10610c0857610100808354040283529160200191610c33565b820191906000526020600020905b815481529060010190602001808311610c1657829003601f168201915b5050505050908060050154908060060160009054906101000a900460ff16908060070154908060080154905088565b6003548210610ca6576040517f08c379a0000000000000000000000000000000000000000000000000000000008152600401610c9d906125fb565b60405180910390fd5b60008083815260200190815260200160002060060160009054906101000a900460ff16610d08576040517f08c379a0000000000000000000000000000000000000000000000000000000008152600401610cff90612800565b60405180910390fd5b600080838152602001908152602001600020600801544210610d5f576040517f08c379a0000000000000000000000000000000000000000000000000000000008152600401610d569061286c565b60405180910390fd5b60006040518060a001604052803373ffffffffffffffffffffffffffffffffffffffff1681526020018381526020014281526020016000151581526020016000151581525090506001600084815260200190815260200160002081908060018154018082558091505060019003906000526020600020906004020160009091909190915060008201518160000160006101000a81548173ffffffffffffffffffffffffffffffffffffffff021916908373ffffffffffffffffffffffffffffffffffffffff1602179055506020820151816001019081610e3f91906123e1565b506040820151816002015560608201518160030160006101000a81548160ff02191690831515021790555060808201518160030160016101000a81548160ff02191690831515021790555050503373ffffffffffffffffffffffffffffffffffffffff16837fe1c1c3f2000b65def4c5740d3fbf4d05ee222d99d440ee5d65fa731386321fb88442604051610ed592919061288c565b60405180910390a3505050565b6003548210610f26576040517f08c379a0000000000000000000000000000000000000000000000000000000008152600401610f1d906125fb565b60405180910390fd5b60008083815260200190815260200160002060010160009054906101000a900473ffffffffffffffffffffffffffffffffffffffff1673ffffffffffffffffffffffffffffffffffffffff163373ffffffffffffffffffffffffffffffffffffffff1614610fc9576040517f08c379a0000000000000000000000000000000000000000000000000000000008152600401610fc090612908565b60405180910390fd5b60016000838152602001908152602001600020805490508110611021576040517f08c379a0000000000000000000000000000000000000000000000000000000008152600401611018906126f9565b60405180910390fd5b600060016000848152602001908152602001600020828154811061104857611047612719565b5b906000526020600020906004020190508060030160009054906101000a900460ff166110a9576040517f08c379a00000000000000000000000000000000000000000000000000000000081526004016110a09061299a565b60405180910390fd5b8060030160019054906101000a900460ff16156110fb576040517f08c379a00000000000000000000000000000000000000000000000000000000081526004016110f290612a06565b60405180910390fd5b60018160030160016101000a81548160ff0219169083151502179055508060000160009054906101000a900473ffffffffffffffffffffffffffffffffffffffff1673ffffffffffffffffffffffffffffffffffffffff166108fc600080868152602001908152602001600020600501549081150290604051600060405180830381858888f19350505050158015611197573d6000803e3d6000fd5b508060000160009054906101000a900473ffffffffffffffffffffffffffffffffffffffff1673ffffffffffffffffffffffffffffffffffffffff16837f285d0f935b4d6592b80efc46cc3d9eb3e93e27fe245f0a6c2b5b9a9d04800ee74260405161120391906119c7565b60405180910390a3505050565b61121861158e565b600354821061125c576040517f08c379a0000000000000000000000000000000000000000000000000000000008152600401611253906125fb565b60405180910390fd5b60008083815260200190815260200160002060405180610120016040529081600082015481526020016001820160009054906101000a900473ffffffffffffffffffffffffffffffffffffffff1673ffffffffffffffffffffffffffffffffffffffff1673ffffffffffffffffffffffffffffffffffffffff1681526020016002820180546112ea90612204565b80601f016020809104026020016040519081016040528092919081815260200182805461131690612204565b80156113635780601f1061133857610100808354040283529160200191611363565b820191906000526020600020905b81548152906001019060200180831161134657829003601f168201915b5050505050815260200160038201805461137c90612204565b80601f01602080910402602001604051908101604052809291908181526020018280546113a890612204565b80156113f55780601f106113ca576101008083540402835291602001916113f5565b820191906000526020600020905b8154815290600101906020018083116113d857829003601f168201915b5050505050815260200160048201805480602002602001604051908101604052809291908181526020016000905b828210156114cf57838290600052602060002001805461144290612204565b80601f016020809104026020016040519081016040528092919081815260200182805461146e90612204565b80156114bb5780601f10611490576101008083540402835291602001916114bb565b820191906000526020600020905b81548152906001019060200180831161149e57829003601f168201915b505050505081526020019060010190611423565b505050508152602001600582015481526020016006820160009054906101000a900460ff16151515158152602001600782015481526020016008820154815250509050919050565b60026020528060005260406000206000915090505481565b60035481565b82805482825590600052602060002090810192821561157d579160200282015b8281111561157c57825182908161156c91906123e1565b5091602001919060010190611555565b5b50905061158a91906115f2565b5090565b60405180610120016040528060008152602001600073ffffffffffffffffffffffffffffffffffffffff1681526020016060815260200160608152602001606081526020016000815260200160001515815260200160008152602001600081525090565b5b8082111561161257600081816116099190611616565b506001016115f3565b5090565b50805461162290612204565b6000825580601f106116345750611653565b601f0160209004906000526020600020908101906116529190611656565b5b50565b5b8082111561166f576000816000905550600101611657565b5090565b6000604051905090565b600080fd5b600080fd5b600080fd5b600080fd5b6000601f19601f8301169050919050565b7f4e487b7100000000000000000000000000000000000000000000000000000000600052604160045260246000fd5b6116da82611691565b810181811067ffffffffffffffff821117156116f9576116f86116a2565b5b80604052505050565b600061170c611673565b905061171882826116d1565b919050565b600067ffffffffffffffff821115611738576117376116a2565b5b61174182611691565b9050602081019050919050565b82818337600083830152505050565b600061177061176b8461171d565b611702565b90508281526020810184848401111561178c5761178b61168c565b5b61179784828561174e565b509392505050565b600082601f8301126117b4576117b3611687565b5b81356117c484826020860161175d565b91505092915050565b600067ffffffffffffffff8211156117e8576117e76116a2565b5b602082029050602081019050919050565b600080fd5b600061181161180c846117cd565b611702565b90508083825260208201905060208402830185811115611834576118336117f9565b5b835b8181101561187b57803567ffffffffffffffff81111561185957611858611687565b5b808601611866898261179f565b85526020850194505050602081019050611836565b5050509392505050565b600082601f83011261189a57611899611687565b5b81356118aa8482602086016117fe565b91505092915050565b6000819050919050565b6118c6816118b3565b81146118d157600080fd5b50565b6000813590506118e3816118bd565b92915050565b600080600080600060a086880312156119055761190461167d565b5b600086013567ffffffffffffffff81111561192357611922611682565b5b61192f8882890161179f565b955050602086013567ffffffffffffffff8111156119505761194f611682565b5b61195c8882890161179f565b945050604086013567ffffffffffffffff81111561197d5761197c611682565b5b61198988828901611885565b935050606061199a888289016118d4565b92505060806119ab888289016118d4565b9150509295509295909350565b6119c1816118b3565b82525050565b60006020820190506119dc60008301846119b8565b92915050565b600080604083850312156119f9576119f861167d565b5b6000611a07858286016118d4565b9250506020611a18858286016118d4565b9150509250929050565b600073ffffffffffffffffffffffffffffffffffffffff82169050919050565b6000611a4d82611a22565b9050919050565b611a5d81611a42565b82525050565b600081519050919050565b600082825260208201905092915050565b60005b83811015611a9d578082015181840152602081019050611a82565b60008484015250505050565b6000611ab482611a63565b611abe8185611a6e565b9350611ace818560208601611a7f565b611ad781611691565b840191505092915050565b60008115159050919050565b611af781611ae2565b82525050565b600060a082019050611b126000830188611a54565b8181036020830152611b248187611aa9565b9050611b3360408301866119b8565b611b406060830185611aee565b611b4d6080830184611aee565b9695505050505050565b600060208284031215611b6d57611b6c61167d565b5b6000611b7b848285016118d4565b91505092915050565b600081519050919050565b600082825260208201905092915050565b6000819050602082019050919050565b611bb981611a42565b82525050565b600082825260208201905092915050565b6000611bdb82611a63565b611be58185611bbf565b9350611bf5818560208601611a7f565b611bfe81611691565b840191505092915050565b611c12816118b3565b82525050565b611c2181611ae2565b82525050565b600060a083016000830151611c3f6000860182611bb0565b5060208301518482036020860152611c578282611bd0565b9150506040830151611c6c6040860182611c09565b506060830151611c7f6060860182611c18565b506080830151611c926080860182611c18565b508091505092915050565b6000611ca98383611c27565b905092915050565b6000602082019050919050565b6000611cc982611b84565b611cd38185611b8f565b935083602082028501611ce585611ba0565b8060005b85811015611d215784840389528151611d028582611c9d565b9450611d0d83611cb1565b925060208a01995050600181019050611ce9565b50829750879550505050505092915050565b60006020820190508181036000830152611d4d8184611cbe565b905092915050565b600061010082019050611d6b600083018b6119b8565b611d78602083018a611a54565b8181036040830152611d8a8189611aa9565b90508181036060830152611d9e8188611aa9565b9050611dad60808301876119b8565b611dba60a0830186611aee565b611dc760c08301856119b8565b611dd460e08301846119b8565b9998505050505050505050565b60008060408385031215611df857611df761167d565b5b6000611e06858286016118d4565b925050602083013567ffffffffffffffff811115611e2757611e26611682565b5b611e338582860161179f565b9150509250929050565b600081519050919050565b600082825260208201905092915050565b6000819050602082019050919050565b6000611e758383611bd0565b905092915050565b6000602082019050919050565b6000611e9582611e3d565b611e9f8185611e48565b935083602082028501611eb185611e59565b8060005b85811015611eed5784840389528151611ece8582611e69565b9450611ed983611e7d565b925060208a01995050600181019050611eb5565b50829750879550505050505092915050565b600061012083016000830151611f186000860182611c09565b506020830151611f2b6020860182611bb0565b5060408301518482036040860152611f438282611bd0565b91505060608301518482036060860152611f5d8282611bd0565b91505060808301518482036080860152611f778282611e8a565b91505060a0830151611f8c60a0860182611c09565b5060c0830151611f9f60c0860182611c18565b5060e0830151611fb260e0860182611c09565b50610100830151611fc7610100860182611c09565b508091505092915050565b60006020820190508181036000830152611fec8184611eff565b905092915050565b7f5061796d656e7420616d6f756e74206d757374206d6174636820626f756e747960008201527f2076616c75650000000000000000000000000000000000000000000000000000602082015250565b6000612050602683611a6e565b915061205b82611ff4565b604082019050919050565b6000602082019050818103600083015261207f81612043565b9050919050565b7f5469746c652063616e6e6f7420626520656d7074790000000000000000000000600082015250565b60006120bc601583611a6e565b91506120c782612086565b602082019050919050565b600060208201905081810360008301526120eb816120af565b9050919050565b7f446561646c696e65206d75737420626520696e20746865206675747572650000600082015250565b6000612128601e83611a6e565b9150612133826120f2565b602082019050919050565b600060208201905081810360008301526121578161211b565b9050919050565b7f4e487b7100000000000000000000000000000000000000000000000000000000600052601160045260246000fd5b6000612198826118b3565b91507fffffffffffffffffffffffffffffffffffffffffffffffffffffffffffffffff82036121ca576121c961215e565b5b600182019050919050565b7f4e487b7100000000000000000000000000000000000000000000000000000000600052602260045260246000fd5b6000600282049050600182168061221c57607f821691505b60208210810361222f5761222e6121d5565b5b50919050565b60008190508160005260206000209050919050565b60006020601f8301049050919050565b600082821b905092915050565b6000600883026122977fffffffffffffffffffffffffffffffffffffffffffffffffffffffffffffffff8261225a565b6122a1868361225a565b95508019841693508086168417925050509392505050565b6000819050919050565b60006122de6122d96122d4846118b3565b6122b9565b6118b3565b9050919050565b6000819050919050565b6122f8836122c3565b61230c612304826122e5565b848454612267565b825550505050565b600090565b612321612314565b61232c8184846122ef565b505050565b5b8181101561235057612345600082612319565b600181019050612332565b5050565b601f8211156123955761236681612235565b61236f8461224a565b8101602085101561237e578190505b61239261238a8561224a565b830182612331565b50505b505050565b600082821c905092915050565b60006123b86000198460080261239a565b1980831691505092915050565b60006123d183836123a7565b9150826002028217905092915050565b6123ea82611a63565b67ffffffffffffffff811115612403576124026116a2565b5b61240d8254612204565b612418828285612354565b600060209050601f83116001811461244b5760008415612439578287015190505b61244385826123c5565b8655506124ab565b601f19841661245986612235565b60005b828110156124815784890151825560018201915060208501945060208101905061245c565b8683101561249e578489015161249a601f8916826123a7565b8355505b6001600288020188555050505b505050505050565b600082825260208201905092915050565b60006124cf82611e3d565b6124d981856124b3565b9350836020820285016124eb85611e59565b8060005b8581101561252757848403895281516125088582611e69565b945061251383611e7d565b925060208a019950506001810190506124ef565b50829750879550505050505092915050565b600060c08201905081810360008301526125538189611aa9565b905081810360208301526125678188611aa9565b9050818103604083015261257b81876124c4565b905061258a60608301866119b8565b61259760808301856119b8565b6125a460a08301846119b8565b979650505050505050565b7f426f756e747920646f6573206e6f742065786973740000000000000000000000600082015250565b60006125e5601583611a6e565b91506125f0826125af565b602082019050919050565b60006020820190508181036000830152612614816125d8565b9050919050565b7f4f6e6c7920636f6d70616e792063616e20616363657074206170706c6963617460008201527f696f6e7300000000000000000000000000000000000000000000000000000000602082015250565b6000612677602483611a6e565b91506126828261261b565b604082019050919050565b600060208201905081810360008301526126a68161266a565b9050919050565b7f496e76616c6964206170706c69636174696f6e20696e64657800000000000000600082015250565b60006126e3601983611a6e565b91506126ee826126ad565b602082019050919050565b60006020820190508181036000830152612712816126d6565b9050919050565b7f4e487b7100000000000000000000000000000000000000000000000000000000600052603260045260246000fd5b7f4170706c69636174696f6e20616c726561647920616363657074656400000000600082015250565b600061277e601c83611a6e565b915061278982612748565b602082019050919050565b600060208201905081810360008301526127ad81612771565b9050919050565b7f426f756e7479206973206e6f7420616374697665000000000000000000000000600082015250565b60006127ea601483611a6e565b91506127f5826127b4565b602082019050919050565b60006020820190508181036000830152612819816127dd565b9050919050565b7f426f756e747920646561646c696e652068617320706173736564000000000000600082015250565b6000612856601a83611a6e565b915061286182612820565b602082019050919050565b6000602082019050818103600083015261288581612849565b9050919050565b600060408201905081810360008301526128a68185611aa9565b90506128b560208301846119b8565b9392505050565b7f4f6e6c7920636f6d70616e792063616e20636f6d706c65746520626f756e7479600082015250565b60006128f2602083611a6e565b91506128fd826128bc565b602082019050919050565b60006020820190508181036000830152612921816128e5565b9050919050565b7f4170706c69636174696f6e206d7573742062652061636365707465642066697260008201527f7374000000000000000000000000000000000000000000000000000000000000602082015250565b6000612984602283611a6e565b915061298f82612928565b604082019050919050565b600060208201905081810360008301526129b381612977565b9050919050565b7f426f756e747920616c726561647920636f6d706c657465640000000000000000600082015250565b60006129f0601883611a6e565b91506129fb826129ba565b602082019050919050565b60006020820190508181036000830152612a1f816129e3565b905091905056fea26469706673582212209445e07191fb80cba438d95e70db9eeafc1dc8e77ce17ee9db3f158de28093cf64736f6c63430008160033",
  "linkReferences": {},
  "deployedLinkReferences": {}
}